{
  "_format": "hh-sol-artifact-1",
  "contractName": "PlayGame",
  "sourceName": "contracts/PlayGame.sol",
  "abi": [
    {
      "inputs": [
        {
          "internalType": "address",
          "name": "_gameTokenAddress",
          "type": "address"
        },
        {
          "internalType": "address",
          "name": "_operatorAddress",
          "type": "address"
        }
      ],
      "stateMutability": "nonpayable",
      "type": "constructor"
    },
    {
      "inputs": [],
      "name": "ReentrancyGuardReentrantCall",
      "type": "error"
    },
    {
      "anonymous": false,
      "inputs": [
        {
          "indexed": true,
          "internalType": "bytes32",
          "name": "matchId",
          "type": "bytes32"
        },
        {
          "indexed": true,
          "internalType": "address",
          "name": "p1",
          "type": "address"
        },
        {
          "indexed": true,
          "internalType": "address",
          "name": "p2",
          "type": "address"
        },
        {
          "indexed": false,
          "internalType": "uint256",
          "name": "stake",
          "type": "uint256"
        }
      ],
      "name": "MatchCreated",
      "type": "event"
    },
    {
      "anonymous": false,
      "inputs": [
        {
          "indexed": true,
          "internalType": "bytes32",
          "name": "matchId",
          "type": "bytes32"
        }
      ],
      "name": "Refunded",
      "type": "event"
    },
    {
      "anonymous": false,
      "inputs": [
        {
          "indexed": true,
          "internalType": "bytes32",
          "name": "matchId",
          "type": "bytes32"
        },
        {
          "indexed": true,
          "internalType": "address",
          "name": "winner",
          "type": "address"
        },
        {
          "indexed": false,
          "internalType": "uint256",
          "name": "prize",
          "type": "uint256"
        }
      ],
      "name": "Settled",
      "type": "event"
    },
    {
      "anonymous": false,
      "inputs": [
        {
          "indexed": true,
          "internalType": "bytes32",
          "name": "matchId",
          "type": "bytes32"
        },
        {
          "indexed": true,
          "internalType": "address",
          "name": "player",
          "type": "address"
        }
      ],
      "name": "Staked",
      "type": "event"
    },
    {
      "inputs": [],
      "name": "REFUND_TIMEOUT",
      "outputs": [
        {
          "internalType": "uint256",
          "name": "",
          "type": "uint256"
        }
      ],
      "stateMutability": "view",
      "type": "function"
    },
    {
      "inputs": [
        {
          "internalType": "bytes32",
          "name": "matchId",
          "type": "bytes32"
        },
        {
          "internalType": "address",
          "name": "winner",
          "type": "address"
        }
      ],
      "name": "commitResult",
      "outputs": [],
      "stateMutability": "nonpayable",
      "type": "function"
    },
    {
      "inputs": [
        {
          "internalType": "bytes32",
          "name": "matchId",
          "type": "bytes32"
        },
        {
          "internalType": "address",
          "name": "p1",
          "type": "address"
        },
        {
          "internalType": "address",
          "name": "p2",
          "type": "address"
        },
        {
          "internalType": "uint256",
          "name": "_stake",
          "type": "uint256"
        }
      ],
      "name": "createMatch",
      "outputs": [],
      "stateMutability": "nonpayable",
      "type": "function"
    },
    {
      "inputs": [],
      "name": "gameToken",
      "outputs": [
        {
          "internalType": "contract IERC20",
          "name": "",
          "type": "address"
        }
      ],
      "stateMutability": "view",
      "type": "function"
    },
    {
      "inputs": [
        {
          "internalType": "bytes32",
          "name": "",
          "type": "bytes32"
        }
      ],
      "name": "matches",
      "outputs": [
        {
          "internalType": "address",
          "name": "player1",
          "type": "address"
        },
        {
          "internalType": "address",
          "name": "player2",
          "type": "address"
        },
        {
          "internalType": "uint256",
          "name": "stakeAmount",
          "type": "uint256"
        },
        {
          "internalType": "enum PlayGame.MatchStatus",
          "name": "status",
          "type": "uint8"
        },
        {
          "internalType": "bool",
          "name": "p1_staked",
          "type": "bool"
        },
        {
          "internalType": "bool",
          "name": "p2_staked",
          "type": "bool"
        },
        {
          "internalType": "uint256",
          "name": "startTime",
          "type": "uint256"
        }
      ],
      "stateMutability": "view",
      "type": "function"
    },
    {
      "inputs": [],
      "name": "operator",
      "outputs": [
        {
          "internalType": "address",
          "name": "",
          "type": "address"
        }
      ],
      "stateMutability": "view",
      "type": "function"
    },
    {
      "inputs": [
        {
          "internalType": "bytes32",
          "name": "matchId",
          "type": "bytes32"
        }
      ],
      "name": "refund",
      "outputs": [],
      "stateMutability": "nonpayable",
      "type": "function"
    },
    {
      "inputs": [
        {
          "internalType": "bytes32",
          "name": "matchId",
          "type": "bytes32"
        }
      ],
      "name": "stake",
      "outputs": [],
      "stateMutability": "nonpayable",
      "type": "function"
    }
  ],
  "bytecode": "0x60a060405234801561001057600080fd5b506040516119c83803806119c883398181016040528101906100329190610119565b60016000819055508173ffffffffffffffffffffffffffffffffffffffff1660808173ffffffffffffffffffffffffffffffffffffffff168152505080600160006101000a81548173ffffffffffffffffffffffffffffffffffffffff021916908373ffffffffffffffffffffffffffffffffffffffff1602179055505050610159565b600080fd5b600073ffffffffffffffffffffffffffffffffffffffff82169050919050565b60006100e6826100bb565b9050919050565b6100f6816100db565b811461010157600080fd5b50565b600081519050610113816100ed565b92915050565b600080604083850312156101305761012f6100b6565b5b600061013e85828601610104565b925050602061014f85828601610104565b9150509250929050565b608051611838610190600039600081816103e40152818161092b01528181610a0a01528181610dc70152610fbb01526118386000f3fe608060405234801561001057600080fd5b50600436106100885760003560e01c80637d57900a1161005b5780637d57900a146100ff5780639fe9ada31461011d578063c0d64a8714610153578063c3dfdae61461016f57610088565b8063270ab7f51461008d5780633acb3700146100a9578063570ca735146100c55780637249fbb6146100e3575b600080fd5b6100a760048036038101906100a291906110c6565b61018d565b005b6100c360048036038101906100be919061113c565b6104de565b005b6100cd6107d4565b6040516100da91906111b2565b60405180910390f35b6100fd60048036038101906100f891906111cd565b6107fa565b005b610107610b09565b6040516101149190611209565b60405180910390f35b610137600480360381019061013291906111cd565b610b10565b60405161014a97969594939291906112b6565b60405180910390f35b61016d600480360381019061016891906111cd565b610bb9565b005b610177610fb9565b6040516101849190611384565b60405180910390f35b600160009054906101000a900473ffffffffffffffffffffffffffffffffffffffff1673ffffffffffffffffffffffffffffffffffffffff163373ffffffffffffffffffffffffffffffffffffffff161461021d576040517f08c379a0000000000000000000000000000000000000000000000000000000008152600401610214906113fc565b60405180910390fd5b610225610fdd565b6000600260008481526020019081526020016000209050600160038111156102505761024f611224565b5b8160030160009054906101000a900460ff16600381111561027457610273611224565b5b146102b4576040517f08c379a00000000000000000000000000000000000000000000000000000000081526004016102ab90611468565b60405180910390fd5b8060000160009054906101000a900473ffffffffffffffffffffffffffffffffffffffff1673ffffffffffffffffffffffffffffffffffffffff168273ffffffffffffffffffffffffffffffffffffffff16148061036157508060010160009054906101000a900473ffffffffffffffffffffffffffffffffffffffff1673ffffffffffffffffffffffffffffffffffffffff168273ffffffffffffffffffffffffffffffffffffffff16145b6103a0576040517f08c379a0000000000000000000000000000000000000000000000000000000008152600401610397906114d4565b60405180910390fd5b60028160030160006101000a81548160ff021916908360038111156103c8576103c7611224565b5b02179055506000600282600201546103e09190611523565b90507f000000000000000000000000000000000000000000000000000000000000000073ffffffffffffffffffffffffffffffffffffffff1663a9059cbb84836040518363ffffffff1660e01b815260040161043d929190611565565b6020604051808303816000875af115801561045c573d6000803e3d6000fd5b505050506040513d601f19601f8201168201806040525081019061048091906115ba565b508273ffffffffffffffffffffffffffffffffffffffff16847f16cfaad9ef877ffdcfedd9eae2009b4d27454094546f8fab5fbb10129037afc8836040516104c89190611209565b60405180910390a350506104da611023565b5050565b600160009054906101000a900473ffffffffffffffffffffffffffffffffffffffff1673ffffffffffffffffffffffffffffffffffffffff163373ffffffffffffffffffffffffffffffffffffffff161461056e576040517f08c379a0000000000000000000000000000000000000000000000000000000008152600401610565906113fc565b60405180910390fd5b60006002600086815260200190815260200160002060020154146105c7576040517f08c379a00000000000000000000000000000000000000000000000000000000081526004016105be90611633565b60405180910390fd5b6040518060e001604052808473ffffffffffffffffffffffffffffffffffffffff1681526020018373ffffffffffffffffffffffffffffffffffffffff1681526020018281526020016000600381111561062457610623611224565b5b815260200160001515815260200160001515815260200160008152506002600086815260200190815260200160002060008201518160000160006101000a81548173ffffffffffffffffffffffffffffffffffffffff021916908373ffffffffffffffffffffffffffffffffffffffff16021790555060208201518160010160006101000a81548173ffffffffffffffffffffffffffffffffffffffff021916908373ffffffffffffffffffffffffffffffffffffffff1602179055506040820151816002015560608201518160030160006101000a81548160ff0219169083600381111561071657610715611224565b5b021790555060808201518160030160016101000a81548160ff02191690831515021790555060a08201518160030160026101000a81548160ff02191690831515021790555060c082015181600401559050508173ffffffffffffffffffffffffffffffffffffffff168373ffffffffffffffffffffffffffffffffffffffff16857f4becde1621d018f3c4630cadb81bbd72061cd951ebaab5e8b10d5b2fecfa49ce846040516107c69190611209565b60405180910390a450505050565b600160009054906101000a900473ffffffffffffffffffffffffffffffffffffffff1681565b610802610fdd565b60006002600083815260200190815260200160002090506001600381111561082d5761082c611224565b5b8160030160009054906101000a900460ff16600381111561085157610850611224565b5b14610891576040517f08c379a000000000000000000000000000000000000000000000000000000000815260040161088890611468565b60405180910390fd5b6201518081600401546108a49190611653565b42116108e5576040517f08c379a00000000000000000000000000000000000000000000000000000000081526004016108dc906116d3565b60405180910390fd5b60038160030160006101000a81548160ff0219169083600381111561090d5761090c611224565b5b02179055508060030160019054906101000a900460ff16156109f1577f000000000000000000000000000000000000000000000000000000000000000073ffffffffffffffffffffffffffffffffffffffff1663a9059cbb8260000160009054906101000a900473ffffffffffffffffffffffffffffffffffffffff1683600201546040518363ffffffff1660e01b81526004016109ac929190611565565b6020604051808303816000875af11580156109cb573d6000803e3d6000fd5b505050506040513d601f19601f820116820180604052508101906109ef91906115ba565b505b8060030160029054906101000a900460ff1615610ad0577f000000000000000000000000000000000000000000000000000000000000000073ffffffffffffffffffffffffffffffffffffffff1663a9059cbb8260010160009054906101000a900473ffffffffffffffffffffffffffffffffffffffff1683600201546040518363ffffffff1660e01b8152600401610a8b929190611565565b6020604051808303816000875af1158015610aaa573d6000803e3d6000fd5b505050506040513d601f19601f82011682018060405250810190610ace91906115ba565b505b817ffe509803c09416b28ff3d8f690c8b0c61462a892c46d5430c8fb20abe472daf060405160405180910390a250610b06611023565b50565b6201518081565b60026020528060005260406000206000915090508060000160009054906101000a900473ffffffffffffffffffffffffffffffffffffffff16908060010160009054906101000a900473ffffffffffffffffffffffffffffffffffffffff16908060020154908060030160009054906101000a900460ff16908060030160019054906101000a900460ff16908060030160029054906101000a900460ff16908060040154905087565b610bc1610fdd565b60006002600083815260200190815260200160002090508060000160009054906101000a900473ffffffffffffffffffffffffffffffffffffffff1673ffffffffffffffffffffffffffffffffffffffff163373ffffffffffffffffffffffffffffffffffffffff161480610c8557508060010160009054906101000a900473ffffffffffffffffffffffffffffffffffffffff1673ffffffffffffffffffffffffffffffffffffffff163373ffffffffffffffffffffffffffffffffffffffff16145b610cc4576040517f08c379a0000000000000000000000000000000000000000000000000000000008152600401610cbb9061173f565b60405180910390fd5b8060000160009054906101000a900473ffffffffffffffffffffffffffffffffffffffff1673ffffffffffffffffffffffffffffffffffffffff163373ffffffffffffffffffffffffffffffffffffffff1603610d72578060030160019054906101000a900460ff1615610d6d576040517f08c379a0000000000000000000000000000000000000000000000000000000008152600401610d64906117ab565b60405180910390fd5b610dc5565b8060030160029054906101000a900460ff1615610dc4576040517f08c379a0000000000000000000000000000000000000000000000000000000008152600401610dbb906117ab565b60405180910390fd5b5b7f000000000000000000000000000000000000000000000000000000000000000073ffffffffffffffffffffffffffffffffffffffff166323b872dd333084600201546040518463ffffffff1660e01b8152600401610e26939291906117cb565b6020604051808303816000875af1158015610e45573d6000803e3d6000fd5b505050506040513d601f19601f82011682018060405250810190610e6991906115ba565b508060000160009054906101000a900473ffffffffffffffffffffffffffffffffffffffff1673ffffffffffffffffffffffffffffffffffffffff163373ffffffffffffffffffffffffffffffffffffffff1603610ee35760018160030160016101000a81548160ff021916908315150217905550610f01565b60018160030160026101000a81548160ff0219169083151502179055505b3373ffffffffffffffffffffffffffffffffffffffff16827f33569fabfdaac29b9fcc05f7e8d37b389e8b2ba4379fcefefb7a8883d860b45a60405160405180910390a38060030160019054906101000a900460ff168015610f7157508060030160029054906101000a900460ff165b15610fad5760018160030160006101000a81548160ff02191690836003811115610f9e57610f9d611224565b5b02179055504281600401819055505b50610fb6611023565b50565b7f000000000000000000000000000000000000000000000000000000000000000081565b600260005403611019576040517f3ee5aeb500000000000000000000000000000000000000000000000000000000815260040160405180910390fd5b6002600081905550565b6001600081905550565b600080fd5b6000819050919050565b61104581611032565b811461105057600080fd5b50565b6000813590506110628161103c565b92915050565b600073ffffffffffffffffffffffffffffffffffffffff82169050919050565b600061109382611068565b9050919050565b6110a381611088565b81146110ae57600080fd5b50565b6000813590506110c08161109a565b92915050565b600080604083850312156110dd576110dc61102d565b5b60006110eb85828601611053565b92505060206110fc858286016110b1565b9150509250929050565b6000819050919050565b61111981611106565b811461112457600080fd5b50565b60008135905061113681611110565b92915050565b600080600080608085870312156111565761115561102d565b5b600061116487828801611053565b9450506020611175878288016110b1565b9350506040611186878288016110b1565b925050606061119787828801611127565b91505092959194509250565b6111ac81611088565b82525050565b60006020820190506111c760008301846111a3565b92915050565b6000602082840312156111e3576111e261102d565b5b60006111f184828501611053565b91505092915050565b61120381611106565b82525050565b600060208201905061121e60008301846111fa565b92915050565b7f4e487b7100000000000000000000000000000000000000000000000000000000600052602160045260246000fd5b6004811061126457611263611224565b5b50565b600081905061127582611253565b919050565b600061128582611267565b9050919050565b6112958161127a565b82525050565b60008115159050919050565b6112b08161129b565b82525050565b600060e0820190506112cb600083018a6111a3565b6112d860208301896111a3565b6112e560408301886111fa565b6112f2606083018761128c565b6112ff60808301866112a7565b61130c60a08301856112a7565b61131960c08301846111fa565b98975050505050505050565b6000819050919050565b600061134a61134561134084611068565b611325565b611068565b9050919050565b600061135c8261132f565b9050919050565b600061136e82611351565b9050919050565b61137e81611363565b82525050565b60006020820190506113996000830184611375565b92915050565b600082825260208201905092915050565b7f43616c6c6572206973206e6f7420746865206f70657261746f72000000000000600082015250565b60006113e6601a8361139f565b91506113f1826113b0565b602082019050919050565b60006020820190508181036000830152611415816113d9565b9050919050565b7f4d61746368206e6f7420696e205354414b454420737461746500000000000000600082015250565b600061145260198361139f565b915061145d8261141c565b602082019050919050565b6000602082019050818103600083015261148181611445565b9050919050565b7f496e76616c69642077696e6e6572000000000000000000000000000000000000600082015250565b60006114be600e8361139f565b91506114c982611488565b602082019050919050565b600060208201905081810360008301526114ed816114b1565b9050919050565b7f4e487b7100000000000000000000000000000000000000000000000000000000600052601160045260246000fd5b600061152e82611106565b915061153983611106565b925082820261154781611106565b9150828204841483151761155e5761155d6114f4565b5b5092915050565b600060408201905061157a60008301856111a3565b61158760208301846111fa565b9392505050565b6115978161129b565b81146115a257600080fd5b50565b6000815190506115b48161158e565b92915050565b6000602082840312156115d0576115cf61102d565b5b60006115de848285016115a5565b91505092915050565b7f4d6174636820616c726561647920657869737473000000000000000000000000600082015250565b600061161d60148361139f565b9150611628826115e7565b602082019050919050565b6000602082019050818103600083015261164c81611610565b9050919050565b600061165e82611106565b915061166983611106565b9250828201905080821115611681576116806114f4565b5b92915050565b7f54696d656f7574206e6f74207061737365640000000000000000000000000000600082015250565b60006116bd60128361139f565b91506116c882611687565b602082019050919050565b600060208201905081810360008301526116ec816116b0565b9050919050565b7f4e6f74206120706c617965720000000000000000000000000000000000000000600082015250565b6000611729600c8361139f565b9150611734826116f3565b602082019050919050565b600060208201905081810360008301526117588161171c565b9050919050565b7f416c7265616479207374616b6564000000000000000000000000000000000000600082015250565b6000611795600e8361139f565b91506117a08261175f565b602082019050919050565b600060208201905081810360008301526117c481611788565b9050919050565b60006060820190506117e060008301866111a3565b6117ed60208301856111a3565b6117fa60408301846111fa565b94935050505056fea2646970667358221220a559995038e1aa197bfd8bc7afab72d5f4d230fd2c6cf43447140f060be4094364736f6c634300081c0033",
  "linkReferences": {},
  "deployedLinkReferences": {}
}