{
  "_format": "hh-sol-artifact-1",
  "contractName": "TokenStore",
  "sourceName": "contracts/TokenStore.sol",
  "abi": [
    {
      "inputs": [
        {
          "internalType": "address",
          "name": "_usdtAddress",
          "type": "address"
        },
        {
          "internalType": "address",
          "name": "_gameTokenAddress",
          "type": "address"
        }
      ],
      "stateMutability": "nonpayable",
      "type": "constructor"
    },
    {
      "inputs": [
        {
          "internalType": "address",
          "name": "owner",
          "type": "address"
        }
      ],
      "name": "OwnableInvalidOwner",
      "type": "error"
    },
    {
      "inputs": [
        {
          "internalType": "address",
          "name": "account",
          "type": "address"
        }
      ],
      "name": "OwnableUnauthorizedAccount",
      "type": "error"
    },
    {
      "inputs": [],
      "name": "ReentrancyGuardReentrantCall",
      "type": "error"
    },
    {
      "anonymous": false,
      "inputs": [
        {
          "indexed": true,
          "internalType": "address",
          "name": "previousOwner",
          "type": "address"
        },
        {
          "indexed": true,
          "internalType": "address",
          "name": "newOwner",
          "type": "address"
        }
      ],
      "name": "OwnershipTransferred",
      "type": "event"
    },
    {
      "anonymous": false,
      "inputs": [
        {
          "indexed": true,
          "internalType": "address",
          "name": "buyer",
          "type": "address"
        },
        {
          "indexed": false,
          "internalType": "uint256",
          "name": "usdtAmount",
          "type": "uint256"
        },
        {
          "indexed": false,
          "internalType": "uint256",
          "name": "gtout",
          "type": "uint256"
        }
      ],
      "name": "Purchase",
      "type": "event"
    },
    {
      "inputs": [
        {
          "internalType": "uint256",
          "name": "usdtAmount",
          "type": "uint256"
        }
      ],
      "name": "buy",
      "outputs": [],
      "stateMutability": "nonpayable",
      "type": "function"
    },
    {
      "inputs": [],
      "name": "gameToken",
      "outputs": [
        {
          "internalType": "contract GameToken",
          "name": "",
          "type": "address"
        }
      ],
      "stateMutability": "view",
      "type": "function"
    },
    {
      "inputs": [],
      "name": "gtPerUsdt",
      "outputs": [
        {
          "internalType": "uint256",
          "name": "",
          "type": "uint256"
        }
      ],
      "stateMutability": "view",
      "type": "function"
    },
    {
      "inputs": [],
      "name": "owner",
      "outputs": [
        {
          "internalType": "address",
          "name": "",
          "type": "address"
        }
      ],
      "stateMutability": "view",
      "type": "function"
    },
    {
      "inputs": [],
      "name": "renounceOwnership",
      "outputs": [],
      "stateMutability": "nonpayable",
      "type": "function"
    },
    {
      "inputs": [],
      "name": "setGameTokenOwner",
      "outputs": [],
      "stateMutability": "nonpayable",
      "type": "function"
    },
    {
      "inputs": [
        {
          "internalType": "address",
          "name": "newOwner",
          "type": "address"
        }
      ],
      "name": "transferOwnership",
      "outputs": [],
      "stateMutability": "nonpayable",
      "type": "function"
    },
    {
      "inputs": [],
      "name": "usdt",
      "outputs": [
        {
          "internalType": "contract IERC20",
          "name": "",
          "type": "address"
        }
      ],
      "stateMutability": "view",
      "type": "function"
    }
  ],
  "bytecode": "0x60e060405234801561001057600080fd5b50604051610e50380380610e5083398181016040528101906100329190610262565b33600073ffffffffffffffffffffffffffffffffffffffff168173ffffffffffffffffffffffffffffffffffffffff16036100a55760006040517f1e4fbdf700000000000000000000000000000000000000000000000000000000815260040161009c91906102b1565b60405180910390fd5b6100b48161013b60201b60201c565b50600180819055508173ffffffffffffffffffffffffffffffffffffffff1660808173ffffffffffffffffffffffffffffffffffffffff16815250508073ffffffffffffffffffffffffffffffffffffffff1660a08173ffffffffffffffffffffffffffffffffffffffff1681525050670de0b6b3a764000060c0818152505050506102cc565b60008060009054906101000a900473ffffffffffffffffffffffffffffffffffffffff169050816000806101000a81548173ffffffffffffffffffffffffffffffffffffffff021916908373ffffffffffffffffffffffffffffffffffffffff1602179055508173ffffffffffffffffffffffffffffffffffffffff168173ffffffffffffffffffffffffffffffffffffffff167f8be0079c531659141344cd1fd0a4f28419497f9722a3daafe3b4186f6b6457e060405160405180910390a35050565b600080fd5b600073ffffffffffffffffffffffffffffffffffffffff82169050919050565b600061022f82610204565b9050919050565b61023f81610224565b811461024a57600080fd5b50565b60008151905061025c81610236565b92915050565b60008060408385031215610279576102786101ff565b5b60006102878582860161024d565b92505060206102988582860161024d565b9150509250929050565b6102ab81610224565b82525050565b60006020820190506102c660008301846102a2565b92915050565b60805160a05160c051610b396103176000396000818161027b015261050601526000818161015b0152818161024901526103970152600081816101e801526102f60152610b396000f3fe608060405234801561001057600080fd5b50600436106100885760003560e01c8063c3dfdae61161005b578063c3dfdae6146100dd578063d96a094a146100fb578063f2fde38b14610117578063f5243bfd1461013357610088565b806315f49a7f1461008d5780632f48ab7d14610097578063715018a6146100b55780638da5cb5b146100bf575b600080fd5b610095610151565b005b61009f6101e6565b6040516100ac9190610749565b60405180910390f35b6100bd61020a565b005b6100c761021e565b6040516100d49190610785565b60405180910390f35b6100e5610247565b6040516100f291906107c1565b60405180910390f35b61011560048036038101906101109190610817565b61026b565b005b610131600480360381019061012c9190610870565b61047e565b005b61013b610504565b60405161014891906108ac565b60405180910390f35b610159610528565b7f000000000000000000000000000000000000000000000000000000000000000073ffffffffffffffffffffffffffffffffffffffff1663f2fde38b306040518263ffffffff1660e01b81526004016101b29190610785565b600060405180830381600087803b1580156101cc57600080fd5b505af11580156101e0573d6000803e3d6000fd5b50505050565b7f000000000000000000000000000000000000000000000000000000000000000081565b610212610528565b61021c60006105af565b565b60008060009054906101000a900473ffffffffffffffffffffffffffffffffffffffff16905090565b7f000000000000000000000000000000000000000000000000000000000000000081565b610273610673565b6000620f42407f0000000000000000000000000000000000000000000000000000000000000000836102a591906108f6565b6102af9190610967565b9050600081116102f4576040517f08c379a00000000000000000000000000000000000000000000000000000000081526004016102eb906109f5565b60405180910390fd5b7f000000000000000000000000000000000000000000000000000000000000000073ffffffffffffffffffffffffffffffffffffffff166323b872dd3330856040518463ffffffff1660e01b815260040161035193929190610a15565b6020604051808303816000875af1158015610370573d6000803e3d6000fd5b505050506040513d601f19601f820116820180604052508101906103949190610a84565b507f000000000000000000000000000000000000000000000000000000000000000073ffffffffffffffffffffffffffffffffffffffff166340c10f1933836040518363ffffffff1660e01b81526004016103f0929190610ab1565b600060405180830381600087803b15801561040a57600080fd5b505af115801561041e573d6000803e3d6000fd5b505050503373ffffffffffffffffffffffffffffffffffffffff167f12cb4648cf3058b17ceeb33e579f8b0bc269fe0843f3900b8e24b6c54871703c838360405161046a929190610ada565b60405180910390a25061047b6106b9565b50565b610486610528565b600073ffffffffffffffffffffffffffffffffffffffff168173ffffffffffffffffffffffffffffffffffffffff16036104f85760006040517f1e4fbdf70000000000000000000000000000000000000000000000000000000081526004016104ef9190610785565b60405180910390fd5b610501816105af565b50565b7f000000000000000000000000000000000000000000000000000000000000000081565b6105306106c2565b73ffffffffffffffffffffffffffffffffffffffff1661054e61021e565b73ffffffffffffffffffffffffffffffffffffffff16146105ad576105716106c2565b6040517f118cdaa70000000000000000000000000000000000000000000000000000000081526004016105a49190610785565b60405180910390fd5b565b60008060009054906101000a900473ffffffffffffffffffffffffffffffffffffffff169050816000806101000a81548173ffffffffffffffffffffffffffffffffffffffff021916908373ffffffffffffffffffffffffffffffffffffffff1602179055508173ffffffffffffffffffffffffffffffffffffffff168173ffffffffffffffffffffffffffffffffffffffff167f8be0079c531659141344cd1fd0a4f28419497f9722a3daafe3b4186f6b6457e060405160405180910390a35050565b6002600154036106af576040517f3ee5aeb500000000000000000000000000000000000000000000000000000000815260040160405180910390fd5b6002600181905550565b60018081905550565b600033905090565b600073ffffffffffffffffffffffffffffffffffffffff82169050919050565b6000819050919050565b600061070f61070a610705846106ca565b6106ea565b6106ca565b9050919050565b6000610721826106f4565b9050919050565b600061073382610716565b9050919050565b61074381610728565b82525050565b600060208201905061075e600083018461073a565b92915050565b600061076f826106ca565b9050919050565b61077f81610764565b82525050565b600060208201905061079a6000830184610776565b92915050565b60006107ab82610716565b9050919050565b6107bb816107a0565b82525050565b60006020820190506107d660008301846107b2565b92915050565b600080fd5b6000819050919050565b6107f4816107e1565b81146107ff57600080fd5b50565b600081359050610811816107eb565b92915050565b60006020828403121561082d5761082c6107dc565b5b600061083b84828501610802565b91505092915050565b61084d81610764565b811461085857600080fd5b50565b60008135905061086a81610844565b92915050565b600060208284031215610886576108856107dc565b5b60006108948482850161085b565b91505092915050565b6108a6816107e1565b82525050565b60006020820190506108c1600083018461089d565b92915050565b7f4e487b7100000000000000000000000000000000000000000000000000000000600052601160045260246000fd5b6000610901826107e1565b915061090c836107e1565b925082820261091a816107e1565b91508282048414831517610931576109306108c7565b5b5092915050565b7f4e487b7100000000000000000000000000000000000000000000000000000000600052601260045260246000fd5b6000610972826107e1565b915061097d836107e1565b92508261098d5761098c610938565b5b828204905092915050565b600082825260208201905092915050565b7f475420616d6f756e7420776f756c64206265207a65726f000000000000000000600082015250565b60006109df601783610998565b91506109ea826109a9565b602082019050919050565b60006020820190508181036000830152610a0e816109d2565b9050919050565b6000606082019050610a2a6000830186610776565b610a376020830185610776565b610a44604083018461089d565b949350505050565b60008115159050919050565b610a6181610a4c565b8114610a6c57600080fd5b50565b600081519050610a7e81610a58565b92915050565b600060208284031215610a9a57610a996107dc565b5b6000610aa884828501610a6f565b91505092915050565b6000604082019050610ac66000830185610776565b610ad3602083018461089d565b9392505050565b6000604082019050610aef600083018561089d565b610afc602083018461089d565b939250505056fea2646970667358221220e3557dad6cecf8d54387a0dce2462dcca28e1fc9403b929caaf05a98fc8567af64736f6c634300081c0033",
  "linkReferences": {},
  "deployedLinkReferences": {}
}